:100000001CC034C133C141C031C130C12FC12EC168
:100010002DC12CC12BC12AC129C128C127C126C18C
:1000200025C124C123C122C121C120C11FC11EC1BC
:100030001DC11CC13F003F08800011241FBECFEF2F
:10004000CDBFDFE3DEBFE4E3F0E040E017C0B591F1
:10005000A59135912591059107FD0CC0959185914C
:10006000EF01F92FE82F05900D92A217B307D9F7EA
:10007000FE0104C01D92A217B307E1F7E933F407AC
:0A00800031F780D0E8C0F894FFCFFC
:10008A001F920F920FB60F9211242F933F934F9303
:10009A005F936F937F938F939F93AF93BF93EF93E6
:1000AA00FF931F9B05C0E091063FF091073F09951A
:1000BA00199B05C0E091043FF091053F09951A9BF1
:1000CA0005C0E091023FF091033F09951E9B05C0D0
:1000DA00E091003FF091013F09958FEF83B9FF91BD
:1000EA00EF91BF91AF919F918F917F916F915F91A6
:1000FA004F913F912F910F900FBE0F901F9018951F
:10010A00E89409C097FB3EF49095809570956195A7
:10011A007F4F8F4F9F4F9923A9F0F92F96E9BB275D
:10012A009395F695879577956795B795F111F8CFD9
:10013A00FAF4BB0F11F460FF1BC06F5F7F4F8F4F44
:10014A009F4F16C0882311F096E911C0772321F03A
:10015A009EE8872F762F05C0662371F096E8862FD2
:10016A0070E060E02AF09A95660F771F881FDAF729
:0A017A00880F9695879597F9089570
:100184000798069A029A019A5AD010E0C0E0D0E08B
:1001940049D0BC0180E090E0B6DF20E030EC4EE7CF
:1001A40054E45ED018161CF4099A0A9A01C00A98FD
:1001B400C03981E0D80758F0111105C00E9A11E03A
:1001C400C0E0D0E004C00E9810E0C0E0D0E08DE8BC
:0C01D40090E20197F1F700002A96DACFC4
:1001E000990F0008550FAA0BE0E8FEEF1616170648
:1001F000E807F907C0F012161306E407F50798F0B0
:10020000621B730B840B950B39F40A2661F0232BC8
:10021000242B252B21F408950A2609F4A140A69544
:080220008FEF811D811D08957F
:1002280081E080930806E0E0F6E0838580FFFDCF5B
:0A02380080911006909111060895C0
:10024200E0E0F6E0108280E5828387E0868381E049
:040252008083089508
:0E025600EC010BD009D0CE0109D0CE0108D0AA
:08026400BDDF08F48FEF0895DF
:02026C00C9CEF9
:02026E000895F1
:020270000895EF
:020272000895ED
:0202740008DFA1
:02000004008278
:090000000000020000C40700002A
:00000001FF
